{
  "_format": "hh-sol-artifact-1",
  "contractName": "DAROSmartContract",
  "sourceName": "contracts/DARO.sol",
  "abi": [
    {
      "inputs": [
        {
          "internalType": "address",
          "name": "gateway_",
          "type": "address"
        },
        {
          "internalType": "address",
          "name": "gasReceiver_",
          "type": "address"
        }
      ],
      "stateMutability": "nonpayable",
      "type": "constructor"
    },
    {
      "inputs": [],
      "name": "InvalidAddress",
      "type": "error"
    },
    {
      "inputs": [],
      "name": "NotApprovedByGateway",
      "type": "error"
    },
    {
      "anonymous": false,
      "inputs": [
        {
          "indexed": true,
          "internalType": "uint256",
          "name": "publicationId",
          "type": "uint256"
        },
        {
          "indexed": true,
          "internalType": "address",
          "name": "researcher",
          "type": "address"
        }
      ],
      "name": "PublicationSubmitted",
      "type": "event"
    },
    {
      "inputs": [
        {
          "internalType": "string",
          "name": "_title",
          "type": "string"
        },
        {
          "internalType": "string",
          "name": "_description",
          "type": "string"
        },
        {
          "internalType": "string",
          "name": "_fileHash",
          "type": "string"
        }
      ],
      "name": "addPublication",
      "outputs": [],
      "stateMutability": "nonpayable",
      "type": "function"
    },
    {
      "inputs": [
        {
          "internalType": "uint256",
          "name": "_id",
          "type": "uint256"
        },
        {
          "internalType": "string",
          "name": "_feedback",
          "type": "string"
        },
        {
          "internalType": "uint256",
          "name": "_score",
          "type": "uint256"
        }
      ],
      "name": "addReview",
      "outputs": [],
      "stateMutability": "nonpayable",
      "type": "function"
    },
    {
      "inputs": [
        {
          "internalType": "uint256",
          "name": "_id",
          "type": "uint256"
        },
        {
          "internalType": "address",
          "name": "_contributor",
          "type": "address"
        }
      ],
      "name": "allowContributor",
      "outputs": [],
      "stateMutability": "nonpayable",
      "type": "function"
    },
    {
      "inputs": [
        {
          "internalType": "uint256",
          "name": "_id",
          "type": "uint256"
        },
        {
          "internalType": "string",
          "name": "_description",
          "type": "string"
        }
      ],
      "name": "contribute",
      "outputs": [],
      "stateMutability": "nonpayable",
      "type": "function"
    },
    {
      "inputs": [
        {
          "internalType": "uint256",
          "name": "_id",
          "type": "uint256"
        }
      ],
      "name": "contributeFunds",
      "outputs": [],
      "stateMutability": "payable",
      "type": "function"
    },
    {
      "inputs": [
        {
          "internalType": "uint256",
          "name": "",
          "type": "uint256"
        },
        {
          "internalType": "address",
          "name": "",
          "type": "address"
        }
      ],
      "name": "contributors",
      "outputs": [
        {
          "internalType": "bool",
          "name": "",
          "type": "bool"
        }
      ],
      "stateMutability": "view",
      "type": "function"
    },
    {
      "inputs": [
        {
          "internalType": "uint256",
          "name": "_id",
          "type": "uint256"
        }
      ],
      "name": "distributeFunds",
      "outputs": [],
      "stateMutability": "nonpayable",
      "type": "function"
    },
    {
      "inputs": [
        {
          "internalType": "bytes32",
          "name": "commandId",
          "type": "bytes32"
        },
        {
          "internalType": "string",
          "name": "sourceChain",
          "type": "string"
        },
        {
          "internalType": "string",
          "name": "sourceAddress",
          "type": "string"
        },
        {
          "internalType": "bytes",
          "name": "payload",
          "type": "bytes"
        }
      ],
      "name": "execute",
      "outputs": [],
      "stateMutability": "nonpayable",
      "type": "function"
    },
    {
      "inputs": [
        {
          "internalType": "bytes32",
          "name": "commandId",
          "type": "bytes32"
        },
        {
          "internalType": "string",
          "name": "sourceChain",
          "type": "string"
        },
        {
          "internalType": "string",
          "name": "sourceAddress",
          "type": "string"
        },
        {
          "internalType": "bytes",
          "name": "payload",
          "type": "bytes"
        },
        {
          "internalType": "string",
          "name": "tokenSymbol",
          "type": "string"
        },
        {
          "internalType": "uint256",
          "name": "amount",
          "type": "uint256"
        }
      ],
      "name": "executeWithToken",
      "outputs": [],
      "stateMutability": "nonpayable",
      "type": "function"
    },
    {
      "inputs": [
        {
          "internalType": "uint256",
          "name": "",
          "type": "uint256"
        },
        {
          "internalType": "uint256",
          "name": "",
          "type": "uint256"
        }
      ],
      "name": "filesHash",
      "outputs": [
        {
          "internalType": "string",
          "name": "",
          "type": "string"
        }
      ],
      "stateMutability": "view",
      "type": "function"
    },
    {
      "inputs": [],
      "name": "gasService",
      "outputs": [
        {
          "internalType": "contract IAxelarGasService",
          "name": "",
          "type": "address"
        }
      ],
      "stateMutability": "view",
      "type": "function"
    },
    {
      "inputs": [],
      "name": "gateway",
      "outputs": [
        {
          "internalType": "contract IAxelarGateway",
          "name": "",
          "type": "address"
        }
      ],
      "stateMutability": "view",
      "type": "function"
    },
    {
      "inputs": [
        {
          "internalType": "uint256",
          "name": "_id",
          "type": "uint256"
        }
      ],
      "name": "getAverageScore",
      "outputs": [
        {
          "internalType": "uint256",
          "name": "",
          "type": "uint256"
        }
      ],
      "stateMutability": "view",
      "type": "function"
    },
    {
      "inputs": [
        {
          "internalType": "uint256",
          "name": "_id",
          "type": "uint256"
        }
      ],
      "name": "getHashById",
      "outputs": [
        {
          "internalType": "string[]",
          "name": "",
          "type": "string[]"
        }
      ],
      "stateMutability": "view",
      "type": "function"
    },
    {
      "inputs": [
        {
          "internalType": "address",
          "name": "_owner",
          "type": "address"
        }
      ],
      "name": "getMessage",
      "outputs": [
        {
          "components": [
            {
              "internalType": "uint256",
              "name": "timestamp",
              "type": "uint256"
            },
            {
              "internalType": "uint256",
              "name": "id",
              "type": "uint256"
            },
            {
              "internalType": "address",
              "name": "userAddress",
              "type": "address"
            },
            {
              "internalType": "string",
              "name": "data",
              "type": "string"
            },
            {
              "internalType": "bool",
              "name": "Approved",
              "type": "bool"
            }
          ],
          "internalType": "struct DAROSmartContract.Requests[]",
          "name": "",
          "type": "tuple[]"
        }
      ],
      "stateMutability": "view",
      "type": "function"
    },
    {
      "inputs": [
        {
          "internalType": "uint256",
          "name": "_id",
          "type": "uint256"
        }
      ],
      "name": "getPublicationById",
      "outputs": [
        {
          "components": [
            {
              "internalType": "uint256",
              "name": "id",
              "type": "uint256"
            },
            {
              "internalType": "address",
              "name": "researcher",
              "type": "address"
            },
            {
              "internalType": "string",
              "name": "title",
              "type": "string"
            },
            {
              "internalType": "string",
              "name": "description",
              "type": "string"
            },
            {
              "internalType": "string",
              "name": "hash",
              "type": "string"
            },
            {
              "internalType": "uint256",
              "name": "timestamp",
              "type": "uint256"
            },
            {
              "internalType": "bool",
              "name": "reviewed",
              "type": "bool"
            },
            {
              "internalType": "bool",
              "name": "rewarded",
              "type": "bool"
            },
            {
              "internalType": "uint256[]",
              "name": "reviewIds",
              "type": "uint256[]"
            },
            {
              "internalType": "address[]",
              "name": "contributors",
              "type": "address[]"
            },
            {
              "internalType": "uint256",
              "name": "totalContributions",
              "type": "uint256"
            }
          ],
          "internalType": "struct DAROSmartContract.Publication",
          "name": "",
          "type": "tuple"
        }
      ],
      "stateMutability": "view",
      "type": "function"
    },
    {
      "inputs": [
        {
          "internalType": "address",
          "name": "_owner",
          "type": "address"
        }
      ],
      "name": "getPublicationsByAddress",
      "outputs": [
        {
          "components": [
            {
              "internalType": "uint256",
              "name": "id",
              "type": "uint256"
            },
            {
              "internalType": "address",
              "name": "researcher",
              "type": "address"
            },
            {
              "internalType": "string",
              "name": "title",
              "type": "string"
            },
            {
              "internalType": "string",
              "name": "description",
              "type": "string"
            },
            {
              "internalType": "string",
              "name": "hash",
              "type": "string"
            },
            {
              "internalType": "uint256",
              "name": "timestamp",
              "type": "uint256"
            },
            {
              "internalType": "bool",
              "name": "reviewed",
              "type": "bool"
            },
            {
              "internalType": "bool",
              "name": "rewarded",
              "type": "bool"
            },
            {
              "internalType": "uint256[]",
              "name": "reviewIds",
              "type": "uint256[]"
            },
            {
              "internalType": "address[]",
              "name": "contributors",
              "type": "address[]"
            },
            {
              "internalType": "uint256",
              "name": "totalContributions",
              "type": "uint256"
            }
          ],
          "internalType": "struct DAROSmartContract.Publication[]",
          "name": "",
          "type": "tuple[]"
        }
      ],
      "stateMutability": "view",
      "type": "function"
    },
    {
      "inputs": [
        {
          "internalType": "uint256",
          "name": "_id",
          "type": "uint256"
        }
      ],
      "name": "getReview",
      "outputs": [
        {
          "components": [
            {
              "internalType": "address",
              "name": "reviewer",
              "type": "address"
            },
            {
              "internalType": "string",
              "name": "feedback",
              "type": "string"
            },
            {
              "internalType": "uint256",
              "name": "score",
              "type": "uint256"
            }
          ],
          "internalType": "struct DAROSmartContract.Review[]",
          "name": "",
          "type": "tuple[]"
        }
      ],
      "stateMutability": "view",
      "type": "function"
    },
    {
      "inputs": [
        {
          "internalType": "uint256",
          "name": "",
          "type": "uint256"
        },
        {
          "internalType": "uint256",
          "name": "",
          "type": "uint256"
        }
      ],
      "name": "getReviews",
      "outputs": [
        {
          "internalType": "address",
          "name": "reviewer",
          "type": "address"
        },
        {
          "internalType": "string",
          "name": "feedback",
          "type": "string"
        },
        {
          "internalType": "uint256",
          "name": "score",
          "type": "uint256"
        }
      ],
      "stateMutability": "view",
      "type": "function"
    },
    {
      "inputs": [
        {
          "internalType": "uint256",
          "name": "_id",
          "type": "uint256"
        }
      ],
      "name": "getUserUpdates",
      "outputs": [
        {
          "components": [
            {
              "internalType": "uint256",
              "name": "timestamp",
              "type": "uint256"
            },
            {
              "internalType": "address",
              "name": "userAddress",
              "type": "address"
            },
            {
              "internalType": "string",
              "name": "description",
              "type": "string"
            },
            {
              "internalType": "string",
              "name": "data",
              "type": "string"
            }
          ],
          "internalType": "struct DAROSmartContract.Updates[]",
          "name": "",
          "type": "tuple[]"
        }
      ],
      "stateMutability": "view",
      "type": "function"
    },
    {
      "inputs": [
        {
          "internalType": "uint256",
          "name": "",
          "type": "uint256"
        }
      ],
      "name": "isOwner",
      "outputs": [
        {
          "internalType": "address",
          "name": "",
          "type": "address"
        }
      ],
      "stateMutability": "view",
      "type": "function"
    },
    {
      "inputs": [
        {
          "internalType": "address",
          "name": "",
          "type": "address"
        },
        {
          "internalType": "uint256",
          "name": "",
          "type": "uint256"
        }
      ],
      "name": "messages",
      "outputs": [
        {
          "internalType": "uint256",
          "name": "timestamp",
          "type": "uint256"
        },
        {
          "internalType": "uint256",
          "name": "id",
          "type": "uint256"
        },
        {
          "internalType": "address",
          "name": "userAddress",
          "type": "address"
        },
        {
          "internalType": "string",
          "name": "data",
          "type": "string"
        },
        {
          "internalType": "bool",
          "name": "Approved",
          "type": "bool"
        }
      ],
      "stateMutability": "view",
      "type": "function"
    },
    {
      "inputs": [],
      "name": "publicationCounter",
      "outputs": [
        {
          "internalType": "uint256",
          "name": "",
          "type": "uint256"
        }
      ],
      "stateMutability": "view",
      "type": "function"
    },
    {
      "inputs": [
        {
          "internalType": "uint256",
          "name": "",
          "type": "uint256"
        }
      ],
      "name": "publications",
      "outputs": [
        {
          "internalType": "uint256",
          "name": "id",
          "type": "uint256"
        },
        {
          "internalType": "address",
          "name": "researcher",
          "type": "address"
        },
        {
          "internalType": "string",
          "name": "title",
          "type": "string"
        },
        {
          "internalType": "string",
          "name": "description",
          "type": "string"
        },
        {
          "internalType": "string",
          "name": "hash",
          "type": "string"
        },
        {
          "internalType": "uint256",
          "name": "timestamp",
          "type": "uint256"
        },
        {
          "internalType": "bool",
          "name": "reviewed",
          "type": "bool"
        },
        {
          "internalType": "bool",
          "name": "rewarded",
          "type": "bool"
        },
        {
          "internalType": "uint256",
          "name": "totalContributions",
          "type": "uint256"
        }
      ],
      "stateMutability": "view",
      "type": "function"
    },
    {
      "inputs": [
        {
          "internalType": "address",
          "name": "",
          "type": "address"
        },
        {
          "internalType": "uint256",
          "name": "",
          "type": "uint256"
        }
      ],
      "name": "publicationsByAddress",
      "outputs": [
        {
          "internalType": "uint256",
          "name": "id",
          "type": "uint256"
        },
        {
          "internalType": "address",
          "name": "researcher",
          "type": "address"
        },
        {
          "internalType": "string",
          "name": "title",
          "type": "string"
        },
        {
          "internalType": "string",
          "name": "description",
          "type": "string"
        },
        {
          "internalType": "string",
          "name": "hash",
          "type": "string"
        },
        {
          "internalType": "uint256",
          "name": "timestamp",
          "type": "uint256"
        },
        {
          "internalType": "bool",
          "name": "reviewed",
          "type": "bool"
        },
        {
          "internalType": "bool",
          "name": "rewarded",
          "type": "bool"
        },
        {
          "internalType": "uint256",
          "name": "totalContributions",
          "type": "uint256"
        }
      ],
      "stateMutability": "view",
      "type": "function"
    },
    {
      "inputs": [
        {
          "internalType": "uint256",
          "name": "",
          "type": "uint256"
        },
        {
          "internalType": "address",
          "name": "",
          "type": "address"
        },
        {
          "internalType": "uint256",
          "name": "",
          "type": "uint256"
        }
      ],
      "name": "requestContribution",
      "outputs": [
        {
          "internalType": "uint256",
          "name": "timestamp",
          "type": "uint256"
        },
        {
          "internalType": "uint256",
          "name": "id",
          "type": "uint256"
        },
        {
          "internalType": "address",
          "name": "userAddress",
          "type": "address"
        },
        {
          "internalType": "string",
          "name": "data",
          "type": "string"
        },
        {
          "internalType": "bool",
          "name": "Approved",
          "type": "bool"
        }
      ],
      "stateMutability": "view",
      "type": "function"
    },
    {
      "inputs": [],
      "name": "reviewCounter",
      "outputs": [
        {
          "internalType": "uint256",
          "name": "",
          "type": "uint256"
        }
      ],
      "stateMutability": "view",
      "type": "function"
    },
    {
      "inputs": [
        {
          "internalType": "uint256",
          "name": "",
          "type": "uint256"
        }
      ],
      "name": "reviews",
      "outputs": [
        {
          "internalType": "address",
          "name": "reviewer",
          "type": "address"
        },
        {
          "internalType": "string",
          "name": "feedback",
          "type": "string"
        },
        {
          "internalType": "uint256",
          "name": "score",
          "type": "uint256"
        }
      ],
      "stateMutability": "view",
      "type": "function"
    },
    {
      "inputs": [],
      "name": "sourceAddress",
      "outputs": [
        {
          "internalType": "string",
          "name": "",
          "type": "string"
        }
      ],
      "stateMutability": "view",
      "type": "function"
    },
    {
      "inputs": [],
      "name": "sourceChain",
      "outputs": [
        {
          "internalType": "string",
          "name": "",
          "type": "string"
        }
      ],
      "stateMutability": "view",
      "type": "function"
    },
    {
      "inputs": [
        {
          "internalType": "uint256",
          "name": "_id",
          "type": "uint256"
        },
        {
          "internalType": "string",
          "name": "_fileHash",
          "type": "string"
        },
        {
          "internalType": "string",
          "name": "_description",
          "type": "string"
        }
      ],
      "name": "updatePublications",
      "outputs": [],
      "stateMutability": "nonpayable",
      "type": "function"
    },
    {
      "inputs": [
        {
          "internalType": "uint256",
          "name": "",
          "type": "uint256"
        },
        {
          "internalType": "uint256",
          "name": "",
          "type": "uint256"
        }
      ],
      "name": "userUpdates",
      "outputs": [
        {
          "internalType": "uint256",
          "name": "timestamp",
          "type": "uint256"
        },
        {
          "internalType": "address",
          "name": "userAddress",
          "type": "address"
        },
        {
          "internalType": "string",
          "name": "description",
          "type": "string"
        },
        {
          "internalType": "string",
          "name": "data",
          "type": "string"
        }
      ],
      "stateMutability": "view",
      "type": "function"
    },
    {
      "inputs": [],
      "name": "value",
      "outputs": [
        {
          "internalType": "string",
          "name": "",
          "type": "string"
        }
      ],
      "stateMutability": "view",
      "type": "function"
    }
  ],
  "bytecode": "0x60c06040523480156200001157600080fd5b50604051620060183803806200601883398181016040528101906200003791906200017a565b81600073ffffffffffffffffffffffffffffffffffffffff168173ffffffffffffffffffffffffffffffffffffffff16036200009f576040517fe6c4247b00000000000000000000000000000000000000000000000000000000815260040160405180910390fd5b8073ffffffffffffffffffffffffffffffffffffffff1660808173ffffffffffffffffffffffffffffffffffffffff1681525050508073ffffffffffffffffffffffffffffffffffffffff1660a08173ffffffffffffffffffffffffffffffffffffffff16815250505050620001c1565b600080fd5b600073ffffffffffffffffffffffffffffffffffffffff82169050919050565b6000620001428262000115565b9050919050565b620001548162000135565b81146200016057600080fd5b50565b600081519050620001748162000149565b92915050565b6000806040838503121562000194576200019362000110565b5b6000620001a48582860162000163565b9250506020620001b78582860162000163565b9150509250929050565b60805160a051615e1c620001fc6000396000818161188c01526120590152600081816109c701528181610a07015261198a0152615e1c6000f3fe6080604052600436106101ee5760003560e01c806364a9d0921161010d578063b516a739116100a0578063e168b3a81161006f578063e168b3a8146107b7578063e7315f99146107e2578063e7c360231461080b578063e83ddcea14610848578063f726f71514610887576101ee565b8063b516a739146106d0578063c45d9bea14610710578063ca1146e014610751578063de3a2b591461077a576101ee565b8063a86835cc116100dc578063a86835cc1461060c578063b05c318b14610637578063b0fa844414610660578063b12ff06c1461068b576101ee565b806364a9d092146105525780636a22d8cc1461057b57806394cdf85f146105a6578063990581b6146105cf576101ee565b806339c7639c116101855780634916065811610154578063491606581461047057806353a44faf1461049957806355448fe1146104d8578063606db61714610515576101ee565b806339c7639c146103af5780633d862f1f146103ec5780633fa4f2451461042957806348a0513214610454576101ee565b80631fd5bbab116101c15780631fd5bbab146102b35780632de4ea64146102f85780633341f7bd1461033557806337950cfb14610372576101ee565b806307058413146101f3578063116191b6146102345780631a98b2e01461025f5780631c6ffa4614610288575b600080fd5b3480156101ff57600080fd5b5061021a60048036038101906102159190613d87565b6108b0565b60405161022b959493929190613ea3565b60405180910390f35b34801561024057600080fd5b506102496109c5565b6040516102569190613f5c565b60405180910390f35b34801561026b57600080fd5b5061028660048036038101906102819190614068565b6109e9565b005b34801561029457600080fd5b5061029d610b05565b6040516102aa9190614178565b60405180910390f35b3480156102bf57600080fd5b506102da60048036038101906102d5919061419a565b610b93565b6040516102ef999897969594939291906141c7565b60405180910390f35b34801561030457600080fd5b5061031f600480360381019061031a9190614269565b610db3565b60405161032c9190614178565b60405180910390f35b34801561034157600080fd5b5061035c600480360381019061035791906142a9565b610e6c565b6040516103699190614678565b60405180910390f35b34801561037e57600080fd5b506103996004803603810190610394919061419a565b611251565b6040516103a691906147a5565b60405180910390f35b3480156103bb57600080fd5b506103d660048036038101906103d1919061419a565b6115c4565b6040516103e391906147c7565b60405180910390f35b3480156103f857600080fd5b50610413600480360381019061040e919061419a565b6115f7565b604051610420919061490e565b60405180910390f35b34801561043557600080fd5b5061043e6117ed565b60405161044b9190614178565b60405180910390f35b61046e6004803603810190610469919061419a565b61187b565b005b34801561047c57600080fd5b5061049760048036038101906104929190614930565b61196c565b005b3480156104a557600080fd5b506104c060048036038101906104bb9190614269565b611a7c565b6040516104cf939291906149f9565b60405180910390f35b3480156104e457600080fd5b506104ff60048036038101906104fa91906142a9565b611b6b565b60405161050c9190614b6f565b60405180910390f35b34801561052157600080fd5b5061053c6004803603810190610537919061419a565b611d20565b6040516105499190614c53565b60405180910390f35b34801561055e57600080fd5b5061057960048036038101906105749190614da5565b611e0c565b005b34801561058757600080fd5b50610590612057565b60405161059d9190614e51565b60405180910390f35b3480156105b257600080fd5b506105cd60048036038101906105c89190614e6c565b61207b565b005b3480156105db57600080fd5b506105f660048036038101906105f1919061419a565b6122d9565b6040516106039190614fed565b60405180910390f35b34801561061857600080fd5b5061062161243d565b60405161062e919061500f565b60405180910390f35b34801561064357600080fd5b5061065e6004803603810190610659919061502a565b612443565b005b34801561066c57600080fd5b5061067561290f565b6040516106829190614178565b60405180910390f35b34801561069757600080fd5b506106b260048036038101906106ad91906150d1565b61299d565b6040516106c7999897969594939291906141c7565b60405180910390f35b3480156106dc57600080fd5b506106f760048036038101906106f29190614269565b612bda565b6040516107079493929190615111565b60405180910390f35b34801561071c57600080fd5b50610737600480360381019061073291906150d1565b612d57565b604051610748959493929190613ea3565b60405180910390f35b34801561075d57600080fd5b5061077860048036038101906107739190615164565b612e5f565b005b34801561078657600080fd5b506107a1600480360381019061079c919061419a565b613323565b6040516107ae919061500f565b60405180910390f35b3480156107c357600080fd5b506107cc61346b565b6040516107d9919061500f565b60405180910390f35b3480156107ee57600080fd5b50610809600480360381019061080491906151a4565b613471565b005b34801561081757600080fd5b50610832600480360381019061082d9190615164565b6136f8565b60405161083f9190615200565b60405180910390f35b34801561085457600080fd5b5061086f600480360381019061086a919061419a565b613727565b60405161087e939291906149f9565b60405180910390f35b34801561089357600080fd5b506108ae60048036038101906108a9919061419a565b6137f9565b005b600460205282600052604060002060205281600052604060002081815481106108d857600080fd5b906000526020600020906005020160009250925050508060000154908060010154908060020160009054906101000a900473ffffffffffffffffffffffffffffffffffffffff169080600301805461092f9061524a565b80601f016020809104026020016040519081016040528092919081815260200182805461095b9061524a565b80156109a85780601f1061097d576101008083540402835291602001916109a8565b820191906000526020600020905b81548152906001019060200180831161098b57829003601f168201915b5050505050908060040160009054906101000a900460ff16905085565b7f000000000000000000000000000000000000000000000000000000000000000081565b600085856040516109fb9291906152ab565b604051809103902090507f000000000000000000000000000000000000000000000000000000000000000073ffffffffffffffffffffffffffffffffffffffff16631876eed98c8c8c8c8c878b8b8b6040518a63ffffffff1660e01b8152600401610a6e99989796959493929190615300565b6020604051808303816000875af1158015610a8d573d6000803e3d6000fd5b505050506040513d601f19601f82011682018060405250810190610ab191906153a8565b610ae7576040517f500c44b400000000000000000000000000000000000000000000000000000000815260040160405180910390fd5b610af88a8a8a8a8a8a8a8a8a613a7e565b5050505050505050505050565b600c8054610b129061524a565b80601f0160208091040260200160405190810160405280929190818152602001828054610b3e9061524a565b8015610b8b5780601f10610b6057610100808354040283529160200191610b8b565b820191906000526020600020905b815481529060010190602001808311610b6e57829003601f168201915b505050505081565b60006020528060005260406000206000915090508060000154908060010160009054906101000a900473ffffffffffffffffffffffffffffffffffffffff1690806002018054610be29061524a565b80601f0160208091040260200160405190810160405280929190818152602001828054610c0e9061524a565b8015610c5b5780601f10610c3057610100808354040283529160200191610c5b565b820191906000526020600020905b815481529060010190602001808311610c3e57829003601f168201915b505050505090806003018054610c709061524a565b80601f0160208091040260200160405190810160405280929190818152602001828054610c9c9061524a565b8015610ce95780601f10610cbe57610100808354040283529160200191610ce9565b820191906000526020600020905b815481529060010190602001808311610ccc57829003601f168201915b505050505090806004018054610cfe9061524a565b80601f0160208091040260200160405190810160405280929190818152602001828054610d2a9061524a565b8015610d775780601f10610d4c57610100808354040283529160200191610d77565b820191906000526020600020905b815481529060010190602001808311610d5a57829003601f168201915b5050505050908060050154908060060160009054906101000a900460ff16908060060160019054906101000a900460ff16908060090154905089565b60096020528160005260406000208181548110610dcf57600080fd5b90600052602060002001600091509150508054610deb9061524a565b80601f0160208091040260200160405190810160405280929190818152602001828054610e179061524a565b8015610e645780601f10610e3957610100808354040283529160200191610e64565b820191906000526020600020905b815481529060010190602001808311610e4757829003601f168201915b505050505081565b6060600760008373ffffffffffffffffffffffffffffffffffffffff1673ffffffffffffffffffffffffffffffffffffffff168152602001908152602001600020805480602002602001604051908101604052809291908181526020016000905b8282101561124657838290600052602060002090600a020160405180610160016040529081600082015481526020016001820160009054906101000a900473ffffffffffffffffffffffffffffffffffffffff1673ffffffffffffffffffffffffffffffffffffffff1673ffffffffffffffffffffffffffffffffffffffff168152602001600282018054610f619061524a565b80601f0160208091040260200160405190810160405280929190818152602001828054610f8d9061524a565b8015610fda5780601f10610faf57610100808354040283529160200191610fda565b820191906000526020600020905b815481529060010190602001808311610fbd57829003601f168201915b50505050508152602001600382018054610ff39061524a565b80601f016020809104026020016040519081016040528092919081815260200182805461101f9061524a565b801561106c5780601f106110415761010080835404028352916020019161106c565b820191906000526020600020905b81548152906001019060200180831161104f57829003601f168201915b505050505081526020016004820180546110859061524a565b80601f01602080910402602001604051908101604052809291908181526020018280546110b19061524a565b80156110fe5780601f106110d3576101008083540402835291602001916110fe565b820191906000526020600020905b8154815290600101906020018083116110e157829003601f168201915b50505050508152602001600582015481526020016006820160009054906101000a900460ff161515151581526020016006820160019054906101000a900460ff161515151581526020016007820180548060200260200160405190810160405280929190818152602001828054801561119657602002820191906000526020600020905b815481526020019060010190808311611182575b505050505081526020016008820180548060200260200160405190810160405280929190818152602001828054801561122457602002820191906000526020600020905b8160009054906101000a900473ffffffffffffffffffffffffffffffffffffffff1673ffffffffffffffffffffffffffffffffffffffff16815260200190600101908083116111da575b5050505050815260200160098201548152505081526020019060010190610ecd565b505050509050919050565b611259613ad3565b60008083815260200190815260200160002060405180610160016040529081600082015481526020016001820160009054906101000a900473ffffffffffffffffffffffffffffffffffffffff1673ffffffffffffffffffffffffffffffffffffffff1673ffffffffffffffffffffffffffffffffffffffff1681526020016002820180546112e79061524a565b80601f01602080910402602001604051908101604052809291908181526020018280546113139061524a565b80156113605780601f1061133557610100808354040283529160200191611360565b820191906000526020600020905b81548152906001019060200180831161134357829003601f168201915b505050505081526020016003820180546113799061524a565b80601f01602080910402602001604051908101604052809291908181526020018280546113a59061524a565b80156113f25780601f106113c7576101008083540402835291602001916113f2565b820191906000526020600020905b8154815290600101906020018083116113d557829003601f168201915b5050505050815260200160048201805461140b9061524a565b80601f01602080910402602001604051908101604052809291908181526020018280546114379061524a565b80156114845780601f1061145957610100808354040283529160200191611484565b820191906000526020600020905b81548152906001019060200180831161146757829003601f168201915b50505050508152602001600582015481526020016006820160009054906101000a900460ff161515151581526020016006820160019054906101000a900460ff161515151581526020016007820180548060200260200160405190810160405280929190818152602001828054801561151c57602002820191906000526020600020905b815481526020019060010190808311611508575b50505050508152602001600882018054806020026020016040519081016040528092919081815260200182805480156115aa57602002820191906000526020600020905b8160009054906101000a900473ffffffffffffffffffffffffffffffffffffffff1673ffffffffffffffffffffffffffffffffffffffff1681526020019060010190808311611560575b505050505081526020016009820154815250509050919050565b60086020528060005260406000206000915054906101000a900473ffffffffffffffffffffffffffffffffffffffff1681565b606060036000838152602001908152602001600020805480602002602001604051908101604052809291908181526020016000905b828210156117e25783829060005260206000209060040201604051806080016040529081600082015481526020016001820160009054906101000a900473ffffffffffffffffffffffffffffffffffffffff1673ffffffffffffffffffffffffffffffffffffffff1673ffffffffffffffffffffffffffffffffffffffff1681526020016002820180546116bf9061524a565b80601f01602080910402602001604051908101604052809291908181526020018280546116eb9061524a565b80156117385780601f1061170d57610100808354040283529160200191611738565b820191906000526020600020905b81548152906001019060200180831161171b57829003601f168201915b505050505081526020016003820180546117519061524a565b80601f016020809104026020016040519081016040528092919081815260200182805461177d9061524a565b80156117ca5780601f1061179f576101008083540402835291602001916117ca565b820191906000526020600020905b8154815290600101906020018083116117ad57829003601f168201915b5050505050815250508152602001906001019061162c565b505050509050919050565b600e80546117fa9061524a565b80601f01602080910402602001604051908101604052809291908181526020018280546118269061524a565b80156118735780601f1061184857610100808354040283529160200191611873565b820191906000526020600020905b81548152906001019060200180831161185657829003601f168201915b505050505081565b66038d7ea4c6800034111561192b577f000000000000000000000000000000000000000000000000000000000000000073ffffffffffffffffffffffffffffffffffffffff16630c93e3bb66038d7ea4c6800030600c600d600036336040518863ffffffff1660e01b81526004016118f8969594939291906154ac565b6000604051808303818588803b15801561191157600080fd5b505af1158015611925573d6000803e3d6000fd5b50505050505b66038d7ea4c680003461193e9190615545565b60008083815260200190815260200160002060090160008282546119629190615579565b9250508190555050565b6000828260405161197e9291906152ab565b604051809103902090507f000000000000000000000000000000000000000000000000000000000000000073ffffffffffffffffffffffffffffffffffffffff16635f6970c38989898989876040518763ffffffff1660e01b81526004016119eb969594939291906155ad565b6020604051808303816000875af1158015611a0a573d6000803e3d6000fd5b505050506040513d601f19601f82011682018060405250810190611a2e91906153a8565b611a64576040517f500c44b400000000000000000000000000000000000000000000000000000000815260040160405180910390fd5b611a72878787878787613a89565b5050505050505050565b60026020528160005260406000208181548110611a9857600080fd5b9060005260206000209060030201600091509150508060000160009054906101000a900473ffffffffffffffffffffffffffffffffffffffff1690806001018054611ae29061524a565b80601f0160208091040260200160405190810160405280929190818152602001828054611b0e9061524a565b8015611b5b5780601f10611b3057610100808354040283529160200191611b5b565b820191906000526020600020905b815481529060010190602001808311611b3e57829003601f168201915b5050505050908060020154905083565b6060600b60008373ffffffffffffffffffffffffffffffffffffffff1673ffffffffffffffffffffffffffffffffffffffff168152602001908152602001600020805480602002602001604051908101604052809291908181526020016000905b82821015611d1557838290600052602060002090600502016040518060a001604052908160008201548152602001600182015481526020016002820160009054906101000a900473ffffffffffffffffffffffffffffffffffffffff1673ffffffffffffffffffffffffffffffffffffffff1673ffffffffffffffffffffffffffffffffffffffff168152602001600382018054611c699061524a565b80601f0160208091040260200160405190810160405280929190818152602001828054611c959061524a565b8015611ce25780601f10611cb757610100808354040283529160200191611ce2565b820191906000526020600020905b815481529060010190602001808311611cc557829003601f168201915b505050505081526020016004820160009054906101000a900460ff16151515158152505081526020019060010190611bcc565b505050509050919050565b606060096000838152602001908152602001600020805480602002602001604051908101604052809291908181526020016000905b82821015611e01578382906000526020600020018054611d749061524a565b80601f0160208091040260200160405190810160405280929190818152602001828054611da09061524a565b8015611ded5780601f10611dc257610100808354040283529160200191611ded565b820191906000526020600020905b815481529060010190602001808311611dd057829003601f168201915b505050505081526020019060010190611d55565b505050509050919050565b826008600082815260200190815260200160002060009054906101000a900473ffffffffffffffffffffffffffffffffffffffff1673ffffffffffffffffffffffffffffffffffffffff163373ffffffffffffffffffffffffffffffffffffffff161480611ed45750600a600082815260200190815260200160002060003373ffffffffffffffffffffffffffffffffffffffff1673ffffffffffffffffffffffffffffffffffffffff16815260200190815260200160002060009054906101000a900460ff165b611f13576040517f08c379a0000000000000000000000000000000000000000000000000000000008152600401611f0a90615676565b60405180910390fd5b6009600085815260200190815260200160002083908060018154018082558091505060019003906000526020600020016000909190919091509081611f589190615823565b50600060405180608001604052804281526020013373ffffffffffffffffffffffffffffffffffffffff168152602001848152602001858152509050600360008681526020019081526020016000208190806001815401808255809150506001900390600052602060002090600402016000909190919091506000820151816000015560208201518160010160006101000a81548173ffffffffffffffffffffffffffffffffffffffff021916908373ffffffffffffffffffffffffffffffffffffffff16021790555060408201518160020190816120379190615823565b50606082015181600301908161204d9190615823565b5050505050505050565b7f000000000000000000000000000000000000000000000000000000000000000081565b6000151560008085815260200190815260200160002060060160009054906101000a900460ff161515146120e4576040517f08c379a00000000000000000000000000000000000000000000000000000000081526004016120db90615967565b60405180910390fd5b600060405180606001604052803373ffffffffffffffffffffffffffffffffffffffff1681526020018481526020018381525090506000600160065461212a9190615579565b90506006600081548092919061213f90615987565b91905055506002600086815260200190815260200160002082908060018154018082558091505060019003906000526020600020906003020160009091909190915060008201518160000160006101000a81548173ffffffffffffffffffffffffffffffffffffffff021916908373ffffffffffffffffffffffffffffffffffffffff16021790555060208201518160010190816121dd9190615823565b50604082015181600201555050600080868152602001908152602001600020600701819080600181540180825580915050600190039060005260206000200160009091909190915055816001600083815260200190815260200160002060008201518160000160006101000a81548173ffffffffffffffffffffffffffffffffffffffff021916908373ffffffffffffffffffffffffffffffffffffffff16021790555060208201518160010190816122969190615823565b5060408201518160020155905050600160008087815260200190815260200160002060060160006101000a81548160ff0219169083151502179055505050505050565b606060026000838152602001908152602001600020805480602002602001604051908101604052809291908181526020016000905b8282101561243257838290600052602060002090600302016040518060600160405290816000820160009054906101000a900473ffffffffffffffffffffffffffffffffffffffff1673ffffffffffffffffffffffffffffffffffffffff1673ffffffffffffffffffffffffffffffffffffffff1681526020016001820180546123979061524a565b80601f01602080910402602001604051908101604052809291908181526020018280546123c39061524a565b80156124105780601f106123e557610100808354040283529160200191612410565b820191906000526020600020905b8154815290600101906020018083116123f357829003601f168201915b505050505081526020016002820154815250508152602001906001019061230e565b505050509050919050565b60055481565b6005600081548092919061245690615987565b9190505550600060405180610160016040528060055481526020013373ffffffffffffffffffffffffffffffffffffffff168152602001858152602001848152602001838152602001428152602001600015158152602001600015158152602001600067ffffffffffffffff8111156124d2576124d1614c7a565b5b6040519080825280602002602001820160405280156125005781602001602082028036833780820191505090505b508152602001600067ffffffffffffffff81111561252157612520614c7a565b5b60405190808252806020026020018201604052801561254f5781602001602082028036833780820191505090505b508152602001600081525090508060008060055481526020019081526020016000206000820151816000015560208201518160010160006101000a81548173ffffffffffffffffffffffffffffffffffffffff021916908373ffffffffffffffffffffffffffffffffffffffff16021790555060408201518160020190816125d79190615823565b5060608201518160030190816125ed9190615823565b5060808201518160040190816126039190615823565b5060a0820151816005015560c08201518160060160006101000a81548160ff02191690831515021790555060e08201518160060160016101000a81548160ff02191690831515021790555061010082015181600701908051906020019061266b929190613b47565b50610120820151816008019080519060200190612689929190613b94565b506101408201518160090155905050600760003373ffffffffffffffffffffffffffffffffffffffff1673ffffffffffffffffffffffffffffffffffffffff1681526020019081526020016000208190806001815401808255809150506001900390600052602060002090600a02016000909190919091506000820151816000015560208201518160010160006101000a81548173ffffffffffffffffffffffffffffffffffffffff021916908373ffffffffffffffffffffffffffffffffffffffff16021790555060408201518160020190816127679190615823565b50606082015181600301908161277d9190615823565b5060808201518160040190816127939190615823565b5060a0820151816005015560c08201518160060160006101000a81548160ff02191690831515021790555060e08201518160060160016101000a81548160ff0219169083151502179055506101008201518160070190805190602001906127fb929190613b47565b50610120820151816008019080519060200190612819929190613b94565b50610140820151816009015550506009600060055481526020019081526020016000208290806001815401808255809150506001900390600052602060002001600090919091909150908161286e9190615823565b503360086000600554815260200190815260200160002060006101000a81548173ffffffffffffffffffffffffffffffffffffffff021916908373ffffffffffffffffffffffffffffffffffffffff1602179055503373ffffffffffffffffffffffffffffffffffffffff166005547fc531c31b7b8399a6fb656c936b490c23f870bae5262e87b8d24b0770572d409760405160405180910390a350505050565b600d805461291c9061524a565b80601f01602080910402602001604051908101604052809291908181526020018280546129489061524a565b80156129955780601f1061296a57610100808354040283529160200191612995565b820191906000526020600020905b81548152906001019060200180831161297857829003601f168201915b505050505081565b600760205281600052604060002081815481106129b957600080fd5b90600052602060002090600a0201600091509150508060000154908060010160009054906101000a900473ffffffffffffffffffffffffffffffffffffffff1690806002018054612a099061524a565b80601f0160208091040260200160405190810160405280929190818152602001828054612a359061524a565b8015612a825780601f10612a5757610100808354040283529160200191612a82565b820191906000526020600020905b815481529060010190602001808311612a6557829003601f168201915b505050505090806003018054612a979061524a565b80601f0160208091040260200160405190810160405280929190818152602001828054612ac39061524a565b8015612b105780601f10612ae557610100808354040283529160200191612b10565b820191906000526020600020905b815481529060010190602001808311612af357829003601f168201915b505050505090806004018054612b259061524a565b80601f0160208091040260200160405190810160405280929190818152602001828054612b519061524a565b8015612b9e5780601f10612b7357610100808354040283529160200191612b9e565b820191906000526020600020905b815481529060010190602001808311612b8157829003601f168201915b5050505050908060050154908060060160009054906101000a900460ff16908060060160019054906101000a900460ff16908060090154905089565b60036020528160005260406000208181548110612bf657600080fd5b9060005260206000209060040201600091509150508060000154908060010160009054906101000a900473ffffffffffffffffffffffffffffffffffffffff1690806002018054612c469061524a565b80601f0160208091040260200160405190810160405280929190818152602001828054612c729061524a565b8015612cbf5780601f10612c9457610100808354040283529160200191612cbf565b820191906000526020600020905b815481529060010190602001808311612ca257829003601f168201915b505050505090806003018054612cd49061524a565b80601f0160208091040260200160405190810160405280929190818152602001828054612d009061524a565b8015612d4d5780601f10612d2257610100808354040283529160200191612d4d565b820191906000526020600020905b815481529060010190602001808311612d3057829003601f168201915b5050505050905084565b600b6020528160005260406000208181548110612d7357600080fd5b9060005260206000209060050201600091509150508060000154908060010154908060020160009054906101000a900473ffffffffffffffffffffffffffffffffffffffff1690806003018054612dc99061524a565b80601f0160208091040260200160405190810160405280929190818152602001828054612df59061524a565b8015612e425780601f10612e1757610100808354040283529160200191612e42565b820191906000526020600020905b815481529060010190602001808311612e2557829003601f168201915b5050505050908060040160009054906101000a900460ff16905085565b816008600082815260200190815260200160002060009054906101000a900473ffffffffffffffffffffffffffffffffffffffff1673ffffffffffffffffffffffffffffffffffffffff163373ffffffffffffffffffffffffffffffffffffffff1614612f01576040517f08c379a0000000000000000000000000000000000000000000000000000000008152600401612ef890615a41565b60405180910390fd5b6001600a600085815260200190815260200160002060008473ffffffffffffffffffffffffffffffffffffffff1673ffffffffffffffffffffffffffffffffffffffff16815260200190815260200160002060006101000a81548160ff021916908315150217905550600080848152602001908152602001600020600801829080600181540180825580915050600190039060005260206000200160009091909190916101000a81548173ffffffffffffffffffffffffffffffffffffffff021916908373ffffffffffffffffffffffffffffffffffffffff16021790555060006040518060a001604052804281526020018581526020013373ffffffffffffffffffffffffffffffffffffffff1681526020016040518060400160405280601681526020017f596f752063616e20636f6e74726962757465206e6f77000000000000000000008152508152602001600115158152509050600b60008473ffffffffffffffffffffffffffffffffffffffff1673ffffffffffffffffffffffffffffffffffffffff168152602001908152602001600020819080600181540180825580915050600190039060005260206000209060050201600090919091909150600082015181600001556020820151816001015560408201518160020160006101000a81548173ffffffffffffffffffffffffffffffffffffffff021916908373ffffffffffffffffffffffffffffffffffffffff16021790555060608201518160030190816131329190615823565b5060808201518160040160006101000a81548160ff0219169083151502179055505050600760008473ffffffffffffffffffffffffffffffffffffffff1673ffffffffffffffffffffffffffffffffffffffff16815260200190815260200160002060008086815260200190815260200160002090806001815401808255809150506001900390600052602060002090600a0201600090919091909150600082015481600001556001820160009054906101000a900473ffffffffffffffffffffffffffffffffffffffff168160010160006101000a81548173ffffffffffffffffffffffffffffffffffffffff021916908373ffffffffffffffffffffffffffffffffffffffff160217905550600282018160020190816132549190615a77565b50600382018160030190816132699190615a77565b506004820181600401908161327e9190615a77565b50600582015481600501556006820160009054906101000a900460ff168160060160006101000a81548160ff0219169083151502179055506006820160019054906101000a900460ff168160060160016101000a81548160ff02191690831515021790555060078201816007019080546132f9929190613c1e565b506008820181600801908054613310929190613c70565b5060098201548160090155505050505050565b60006001151560008084815260200190815260200160002060060160009054906101000a900460ff1615151461338e576040517f08c379a000000000000000000000000000000000000000000000000000000000815260040161338590615bd1565b60405180910390fd5b60008060008481526020019081526020016000206007018054806020026020016040519081016040528092919081815260200182805480156133ef57602002820191906000526020600020905b8154815260200190600101908083116133db575b505050505090506000805b8251811015613454576001600084838151811061341a57613419615bf1565b5b60200260200101518152602001908152602001600020600201548261343f9190615579565b9150808061344c90615987565b9150506133fa565b508151816134629190615c4f565b92505050919050565b60065481565b60006040518060a001604052804281526020018481526020013373ffffffffffffffffffffffffffffffffffffffff1681526020018381526020016000151581525090506004600084815260200190815260200160002060003373ffffffffffffffffffffffffffffffffffffffff1673ffffffffffffffffffffffffffffffffffffffff168152602001908152602001600020819080600181540180825580915050600190039060005260206000209060050201600090919091909150600082015181600001556020820151816001015560408201518160020160006101000a81548173ffffffffffffffffffffffffffffffffffffffff021916908373ffffffffffffffffffffffffffffffffffffffff160217905550606082015181600301908161359f9190615823565b5060808201518160040160006101000a81548160ff0219169083151502179055505050600b600080600086815260200190815260200160002060010160009054906101000a900473ffffffffffffffffffffffffffffffffffffffff1673ffffffffffffffffffffffffffffffffffffffff1673ffffffffffffffffffffffffffffffffffffffff168152602001908152602001600020819080600181540180825580915050600190039060005260206000209060050201600090919091909150600082015181600001556020820151816001015560408201518160020160006101000a81548173ffffffffffffffffffffffffffffffffffffffff021916908373ffffffffffffffffffffffffffffffffffffffff16021790555060608201518160030190816136d09190615823565b5060808201518160040160006101000a81548160ff0219169083151502179055505050505050565b600a6020528160005260406000206020528060005260406000206000915091509054906101000a900460ff1681565b60016020528060005260406000206000915090508060000160009054906101000a900473ffffffffffffffffffffffffffffffffffffffff16908060010180546137709061524a565b80601f016020809104026020016040519081016040528092919081815260200182805461379c9061524a565b80156137e95780601f106137be576101008083540402835291602001916137e9565b820191906000526020600020905b8154815290600101906020018083116137cc57829003601f168201915b5050505050908060020154905083565b806008600082815260200190815260200160002060009054906101000a900473ffffffffffffffffffffffffffffffffffffffff1673ffffffffffffffffffffffffffffffffffffffff163373ffffffffffffffffffffffffffffffffffffffff161461389b576040517f08c379a000000000000000000000000000000000000000000000000000000000815260040161389290615a41565b60405180910390fd5b6000806000848152602001908152602001600020600901549050600060646046836138c69190615c80565b6138d09190615c4f565b9050600081836138e09190615545565b905060008086815260200190815260200160002060010160009054906101000a900473ffffffffffffffffffffffffffffffffffffffff1673ffffffffffffffffffffffffffffffffffffffff166108fc839081150290604051600060405180830381858888f1935050505015801561395d573d6000803e3d6000fd5b5060005b60008087815260200190815260200160002060080180549050811015613a5b57600080600088815260200190815260200160002060080182815481106139aa576139a9615bf1565b5b9060005260206000200160009054906101000a900473ffffffffffffffffffffffffffffffffffffffff169050600080600089815260200190815260200160002060080180549050846139fd9190615c4f565b90508173ffffffffffffffffffffffffffffffffffffffff166108fc829081150290604051600060405180830381858888f19350505050158015613a45573d6000803e3d6000fd5b5050508080613a5390615987565b915050613961565b506000806000878152602001908152602001600020600901819055505050505050565b505050505050505050565b8181810190613a989190615cc2565b600e9081613aa69190615823565b508585600c9182613ab8929190615d16565b508383600d9182613aca929190615d16565b50505050505050565b60405180610160016040528060008152602001600073ffffffffffffffffffffffffffffffffffffffff168152602001606081526020016060815260200160608152602001600081526020016000151581526020016000151581526020016060815260200160608152602001600081525090565b828054828255906000526020600020908101928215613b83579160200282015b82811115613b82578251825591602001919060010190613b67565b5b509050613b909190613cc2565b5090565b828054828255906000526020600020908101928215613c0d579160200282015b82811115613c0c5782518260006101000a81548173ffffffffffffffffffffffffffffffffffffffff021916908373ffffffffffffffffffffffffffffffffffffffff16021790555091602001919060010190613bb4565b5b509050613c1a9190613cc2565b5090565b828054828255906000526020600020908101928215613c5f5760005260206000209182015b82811115613c5e578254825591600101919060010190613c43565b5b509050613c6c9190613cc2565b5090565b828054828255906000526020600020908101928215613cb15760005260206000209182015b82811115613cb0578254825591600101919060010190613c95565b5b509050613cbe9190613cc2565b5090565b5b80821115613cdb576000816000905550600101613cc3565b5090565b6000604051905090565b600080fd5b600080fd5b6000819050919050565b613d0681613cf3565b8114613d1157600080fd5b50565b600081359050613d2381613cfd565b92915050565b600073ffffffffffffffffffffffffffffffffffffffff82169050919050565b6000613d5482613d29565b9050919050565b613d6481613d49565b8114613d6f57600080fd5b50565b600081359050613d8181613d5b565b92915050565b600080600060608486031215613da057613d9f613ce9565b5b6000613dae86828701613d14565b9350506020613dbf86828701613d72565b9250506040613dd086828701613d14565b9150509250925092565b613de381613cf3565b82525050565b613df281613d49565b82525050565b600081519050919050565b600082825260208201905092915050565b60005b83811015613e32578082015181840152602081019050613e17565b60008484015250505050565b6000601f19601f8301169050919050565b6000613e5a82613df8565b613e648185613e03565b9350613e74818560208601613e14565b613e7d81613e3e565b840191505092915050565b60008115159050919050565b613e9d81613e88565b82525050565b600060a082019050613eb86000830188613dda565b613ec56020830187613dda565b613ed26040830186613de9565b8181036060830152613ee48185613e4f565b9050613ef36080830184613e94565b9695505050505050565b6000819050919050565b6000613f22613f1d613f1884613d29565b613efd565b613d29565b9050919050565b6000613f3482613f07565b9050919050565b6000613f4682613f29565b9050919050565b613f5681613f3b565b82525050565b6000602082019050613f716000830184613f4d565b92915050565b6000819050919050565b613f8a81613f77565b8114613f9557600080fd5b50565b600081359050613fa781613f81565b92915050565b600080fd5b600080fd5b600080fd5b60008083601f840112613fd257613fd1613fad565b5b8235905067ffffffffffffffff811115613fef57613fee613fb2565b5b60208301915083600182028301111561400b5761400a613fb7565b5b9250929050565b60008083601f84011261402857614027613fad565b5b8235905067ffffffffffffffff81111561404557614044613fb2565b5b60208301915083600182028301111561406157614060613fb7565b5b9250929050565b60008060008060008060008060008060c08b8d03121561408b5761408a613ce9565b5b60006140998d828e01613f98565b9a505060208b013567ffffffffffffffff8111156140ba576140b9613cee565b5b6140c68d828e01613fbc565b995099505060408b013567ffffffffffffffff8111156140e9576140e8613cee565b5b6140f58d828e01613fbc565b975097505060608b013567ffffffffffffffff81111561411857614117613cee565b5b6141248d828e01614012565b955095505060808b013567ffffffffffffffff81111561414757614146613cee565b5b6141538d828e01613fbc565b935093505060a06141668d828e01613d14565b9150509295989b9194979a5092959850565b600060208201905081810360008301526141928184613e4f565b905092915050565b6000602082840312156141b0576141af613ce9565b5b60006141be84828501613d14565b91505092915050565b6000610120820190506141dd600083018c613dda565b6141ea602083018b613de9565b81810360408301526141fc818a613e4f565b905081810360608301526142108189613e4f565b905081810360808301526142248188613e4f565b905061423360a0830187613dda565b61424060c0830186613e94565b61424d60e0830185613e94565b61425b610100830184613dda565b9a9950505050505050505050565b600080604083850312156142805761427f613ce9565b5b600061428e85828601613d14565b925050602061429f85828601613d14565b9150509250929050565b6000602082840312156142bf576142be613ce9565b5b60006142cd84828501613d72565b91505092915050565b600081519050919050565b600082825260208201905092915050565b6000819050602082019050919050565b61430b81613cf3565b82525050565b61431a81613d49565b82525050565b600082825260208201905092915050565b600061433c82613df8565b6143468185614320565b9350614356818560208601613e14565b61435f81613e3e565b840191505092915050565b61437381613e88565b82525050565b600081519050919050565b600082825260208201905092915050565b6000819050602082019050919050565b60006143b18383614302565b60208301905092915050565b6000602082019050919050565b60006143d582614379565b6143df8185614384565b93506143ea83614395565b8060005b8381101561441b57815161440288826143a5565b975061440d836143bd565b9250506001810190506143ee565b5085935050505092915050565b600081519050919050565b600082825260208201905092915050565b6000819050602082019050919050565b60006144608383614311565b60208301905092915050565b6000602082019050919050565b600061448482614428565b61448e8185614433565b935061449983614444565b8060005b838110156144ca5781516144b18882614454565b97506144bc8361446c565b92505060018101905061449d565b5085935050505092915050565b6000610160830160008301516144f06000860182614302565b5060208301516145036020860182614311565b506040830151848203604086015261451b8282614331565b915050606083015184820360608601526145358282614331565b9150506080830151848203608086015261454f8282614331565b91505060a083015161456460a0860182614302565b5060c083015161457760c086018261436a565b5060e083015161458a60e086018261436a565b506101008301518482036101008601526145a482826143ca565b9150506101208301518482036101208601526145c08282614479565b9150506101408301516145d7610140860182614302565b508091505092915050565b60006145ee83836144d7565b905092915050565b6000602082019050919050565b600061460e826142d6565b61461881856142e1565b93508360208202850161462a856142f2565b8060005b85811015614666578484038952815161464785826145e2565b9450614652836145f6565b925060208a0199505060018101905061462e565b50829750879550505050505092915050565b600060208201905081810360008301526146928184614603565b905092915050565b6000610160830160008301516146b36000860182614302565b5060208301516146c66020860182614311565b50604083015184820360408601526146de8282614331565b915050606083015184820360608601526146f88282614331565b915050608083015184820360808601526147128282614331565b91505060a083015161472760a0860182614302565b5060c083015161473a60c086018261436a565b5060e083015161474d60e086018261436a565b5061010083015184820361010086015261476782826143ca565b9150506101208301518482036101208601526147838282614479565b91505061014083015161479a610140860182614302565b508091505092915050565b600060208201905081810360008301526147bf818461469a565b905092915050565b60006020820190506147dc6000830184613de9565b92915050565b600081519050919050565b600082825260208201905092915050565b6000819050602082019050919050565b60006080830160008301516148266000860182614302565b5060208301516148396020860182614311565b50604083015184820360408601526148518282614331565b9150506060830151848203606086015261486b8282614331565b9150508091505092915050565b6000614884838361480e565b905092915050565b6000602082019050919050565b60006148a4826147e2565b6148ae81856147ed565b9350836020820285016148c0856147fe565b8060005b858110156148fc57848403895281516148dd8582614878565b94506148e88361488c565b925060208a019950506001810190506148c4565b50829750879550505050505092915050565b600060208201905081810360008301526149288184614899565b905092915050565b60008060008060008060006080888a03121561494f5761494e613ce9565b5b600061495d8a828b01613f98565b975050602088013567ffffffffffffffff81111561497e5761497d613cee565b5b61498a8a828b01613fbc565b9650965050604088013567ffffffffffffffff8111156149ad576149ac613cee565b5b6149b98a828b01613fbc565b9450945050606088013567ffffffffffffffff8111156149dc576149db613cee565b5b6149e88a828b01614012565b925092505092959891949750929550565b6000606082019050614a0e6000830186613de9565b8181036020830152614a208185613e4f565b9050614a2f6040830184613dda565b949350505050565b600081519050919050565b600082825260208201905092915050565b6000819050602082019050919050565b600060a083016000830151614a7b6000860182614302565b506020830151614a8e6020860182614302565b506040830151614aa16040860182614311565b5060608301518482036060860152614ab98282614331565b9150506080830151614ace608086018261436a565b508091505092915050565b6000614ae58383614a63565b905092915050565b6000602082019050919050565b6000614b0582614a37565b614b0f8185614a42565b935083602082028501614b2185614a53565b8060005b85811015614b5d5784840389528151614b3e8582614ad9565b9450614b4983614aed565b925060208a01995050600181019050614b25565b50829750879550505050505092915050565b60006020820190508181036000830152614b898184614afa565b905092915050565b600081519050919050565b600082825260208201905092915050565b6000819050602082019050919050565b6000614bc98383614331565b905092915050565b6000602082019050919050565b6000614be982614b91565b614bf38185614b9c565b935083602082028501614c0585614bad565b8060005b85811015614c415784840389528151614c228582614bbd565b9450614c2d83614bd1565b925060208a01995050600181019050614c09565b50829750879550505050505092915050565b60006020820190508181036000830152614c6d8184614bde565b905092915050565b600080fd5b7f4e487b7100000000000000000000000000000000000000000000000000000000600052604160045260246000fd5b614cb282613e3e565b810181811067ffffffffffffffff82111715614cd157614cd0614c7a565b5b80604052505050565b6000614ce4613cdf565b9050614cf08282614ca9565b919050565b600067ffffffffffffffff821115614d1057614d0f614c7a565b5b614d1982613e3e565b9050602081019050919050565b82818337600083830152505050565b6000614d48614d4384614cf5565b614cda565b905082815260208101848484011115614d6457614d63614c75565b5b614d6f848285614d26565b509392505050565b600082601f830112614d8c57614d8b613fad565b5b8135614d9c848260208601614d35565b91505092915050565b600080600060608486031215614dbe57614dbd613ce9565b5b6000614dcc86828701613d14565b935050602084013567ffffffffffffffff811115614ded57614dec613cee565b5b614df986828701614d77565b925050604084013567ffffffffffffffff811115614e1a57614e19613cee565b5b614e2686828701614d77565b9150509250925092565b6000614e3b82613f29565b9050919050565b614e4b81614e30565b82525050565b6000602082019050614e666000830184614e42565b92915050565b600080600060608486031215614e8557614e84613ce9565b5b6000614e9386828701613d14565b935050602084013567ffffffffffffffff811115614eb457614eb3613cee565b5b614ec086828701614d77565b9250506040614ed186828701613d14565b9150509250925092565b600081519050919050565b600082825260208201905092915050565b6000819050602082019050919050565b6000606083016000830151614f1f6000860182614311565b5060208301518482036020860152614f378282614331565b9150506040830151614f4c6040860182614302565b508091505092915050565b6000614f638383614f07565b905092915050565b6000602082019050919050565b6000614f8382614edb565b614f8d8185614ee6565b935083602082028501614f9f85614ef7565b8060005b85811015614fdb5784840389528151614fbc8582614f57565b9450614fc783614f6b565b925060208a01995050600181019050614fa3565b50829750879550505050505092915050565b600060208201905081810360008301526150078184614f78565b905092915050565b60006020820190506150246000830184613dda565b92915050565b60008060006060848603121561504357615042613ce9565b5b600084013567ffffffffffffffff81111561506157615060613cee565b5b61506d86828701614d77565b935050602084013567ffffffffffffffff81111561508e5761508d613cee565b5b61509a86828701614d77565b925050604084013567ffffffffffffffff8111156150bb576150ba613cee565b5b6150c786828701614d77565b9150509250925092565b600080604083850312156150e8576150e7613ce9565b5b60006150f685828601613d72565b925050602061510785828601613d14565b9150509250929050565b60006080820190506151266000830187613dda565b6151336020830186613de9565b81810360408301526151458185613e4f565b905081810360608301526151598184613e4f565b905095945050505050565b6000806040838503121561517b5761517a613ce9565b5b600061518985828601613d14565b925050602061519a85828601613d72565b9150509250929050565b600080604083850312156151bb576151ba613ce9565b5b60006151c985828601613d14565b925050602083013567ffffffffffffffff8111156151ea576151e9613cee565b5b6151f685828601614d77565b9150509250929050565b60006020820190506152156000830184613e94565b92915050565b7f4e487b7100000000000000000000000000000000000000000000000000000000600052602260045260246000fd5b6000600282049050600182168061526257607f821691505b6020821081036152755761527461521b565b5b50919050565b600081905092915050565b6000615292838561527b565b935061529f838584614d26565b82840190509392505050565b60006152b8828486615286565b91508190509392505050565b6152cd81613f77565b82525050565b60006152df8385613e03565b93506152ec838584614d26565b6152f583613e3e565b840190509392505050565b600060c082019050615315600083018c6152c4565b8181036020830152615328818a8c6152d3565b9050818103604083015261533d81888a6152d3565b905061534c60608301876152c4565b818103608083015261535f8185876152d3565b905061536e60a0830184613dda565b9a9950505050505050505050565b61538581613e88565b811461539057600080fd5b50565b6000815190506153a28161537c565b92915050565b6000602082840312156153be576153bd613ce9565b5b60006153cc84828501615393565b91505092915050565b60008190508160005260206000209050919050565b600081546153f78161524a565b6154018186613e03565b9450600182166000811461541c576001811461543257615465565b60ff198316865281151560200286019350615465565b61543b856153d5565b60005b8381101561545d5781548189015260018201915060208101905061543e565b808801955050505b50505092915050565b600082825260208201905092915050565b600061548b838561546e565b9350615498838584614d26565b6154a183613e3e565b840190509392505050565b600060a0820190506154c16000830189613de9565b81810360208301526154d381886153ea565b905081810360408301526154e781876153ea565b905081810360608301526154fc81858761547f565b905061550b6080830184613de9565b979650505050505050565b7f4e487b7100000000000000000000000000000000000000000000000000000000600052601160045260246000fd5b600061555082613cf3565b915061555b83613cf3565b925082820390508181111561557357615572615516565b5b92915050565b600061558482613cf3565b915061558f83613cf3565b92508282019050808211156155a7576155a6615516565b5b92915050565b60006080820190506155c260008301896152c4565b81810360208301526155d58187896152d3565b905081810360408301526155ea8185876152d3565b90506155f960608301846152c4565b979650505050505050565b7f4f6e6c7920746865206f776e6572206f7220636f6e7472696275746f7273206360008201527f616e20706572666f726d207468697320616374696f6e00000000000000000000602082015250565b6000615660603683613e03565b915061566b82615604565b604082019050919050565b6000602082019050818103600083015261568f81615653565b9050919050565b60006020601f8301049050919050565b600082821b905092915050565b6000600883026156e37fffffffffffffffffffffffffffffffffffffffffffffffffffffffffffffffff826156a6565b6156ed86836156a6565b95508019841693508086168417925050509392505050565b600061572061571b61571684613cf3565b613efd565b613cf3565b9050919050565b6000819050919050565b61573a83615705565b61574e61574682615727565b8484546156b3565b825550505050565b600090565b615763615756565b61576e818484615731565b505050565b5b818110156157925761578760008261575b565b600181019050615774565b5050565b601f8211156157d7576157a8816153d5565b6157b184615696565b810160208510156157c0578190505b6157d46157cc85615696565b830182615773565b50505b505050565b600082821c905092915050565b60006157fa600019846008026157dc565b1980831691505092915050565b600061581383836157e9565b9150826002028217905092915050565b61582c82613df8565b67ffffffffffffffff81111561584557615844614c7a565b5b61584f825461524a565b61585a828285615796565b600060209050601f83116001811461588d576000841561587b578287015190505b6158858582615807565b8655506158ed565b601f19841661589b866153d5565b60005b828110156158c35784890151825560018201915060208501945060208101905061589e565b868310156158e057848901516158dc601f8916826157e9565b8355505b6001600288020188555050505b505050505050565b7f5075626c69636174696f6e2068617320616c7265616479206265656e2072657660008201527f6965776564000000000000000000000000000000000000000000000000000000602082015250565b6000615951602583613e03565b915061595c826158f5565b604082019050919050565b6000602082019050818103600083015261598081615944565b9050919050565b600061599282613cf3565b91507fffffffffffffffffffffffffffffffffffffffffffffffffffffffffffffffff82036159c4576159c3615516565b5b600182019050919050565b7f4f6e6c7920746865206f776e65722063616e20706572666f726d20746869732060008201527f616374696f6e0000000000000000000000000000000000000000000000000000602082015250565b6000615a2b602683613e03565b9150615a36826159cf565b604082019050919050565b60006020820190508181036000830152615a5a81615a1e565b9050919050565b600081549050615a708161524a565b9050919050565b818103615a85575050615b5d565b615a8e82615a61565b67ffffffffffffffff811115615aa757615aa6614c7a565b5b615ab1825461524a565b615abc828285615796565b6000601f831160018114615aeb5760008415615ad9578287015490505b615ae38582615807565b865550615b56565b601f198416615af9876153d5565b9650615b04866153d5565b60005b82811015615b2c57848901548255600182019150600185019450602081019050615b07565b86831015615b495784890154615b45601f8916826157e9565b8355505b6001600288020188555050505b5050505050505b565b7f5075626c69636174696f6e20686173206e6f74206265656e207265766965776560008201527f6420796574000000000000000000000000000000000000000000000000000000602082015250565b6000615bbb602583613e03565b9150615bc682615b5f565b604082019050919050565b60006020820190508181036000830152615bea81615bae565b9050919050565b7f4e487b7100000000000000000000000000000000000000000000000000000000600052603260045260246000fd5b7f4e487b7100000000000000000000000000000000000000000000000000000000600052601260045260246000fd5b6000615c5a82613cf3565b9150615c6583613cf3565b925082615c7557615c74615c20565b5b828204905092915050565b6000615c8b82613cf3565b9150615c9683613cf3565b9250828202615ca481613cf3565b91508282048414831517615cbb57615cba615516565b5b5092915050565b600060208284031215615cd857615cd7613ce9565b5b600082013567ffffffffffffffff811115615cf657615cf5613cee565b5b615d0284828501614d77565b91505092915050565b600082905092915050565b615d208383615d0b565b67ffffffffffffffff811115615d3957615d38614c7a565b5b615d43825461524a565b615d4e828285615796565b6000601f831160018114615d7d5760008415615d6b578287013590505b615d758582615807565b865550615ddd565b601f198416615d8b866153d5565b60005b82811015615db357848901358255600182019150602085019450602081019050615d8e565b86831015615dd05784890135615dcc601f8916826157e9565b8355505b6001600288020188555050505b5050505050505056fea2646970667358221220bdecf50e66da8610de787a85233a529afd232f503ba7a963f43f7098bebf036a64736f6c63430008120033",
  "linkReferences": {},
  "deployedLinkReferences": {}
}